{
	"schemaVersion": "2.0.0",
	"contractName": "LibEvent",
	"compilerOutput": {
		"abi": [
			{
				"constant": true,
				"inputs": [
					{
						"components": [
							{
								"name": "origin",
								"type": "address"
							},
							{
								"name": "chainId",
								"type": "uint256"
							},
							{
								"name": "data",
								"type": "bytes"
							}
						],
						"name": "_event",
						"type": "tuple"
					}
				],
				"name": "getEventHash",
				"outputs": [
					{
						"name": "",
						"type": "bytes32"
					}
				],
				"payable": false,
				"stateMutability": "pure",
				"type": "function"
			}
		],
		"evm": {
			"bytecode": {
				"linkReferences": {},
				"object": "0x610392610030600b82828239805160001a6073146000811461002057610022565bfe5b5030600052607381538281f3fe7300000000000000000000000000000000000000003014608060405260043610610051577c01000000000000000000000000000000000000000000000000000000006000350463c99ae53d8114610056575b600080fd5b610069610064366004610195565b61007f565b604051610076919061026a565b60405180910390f35b600081604051602001610092919061027e565b604051602081830303815290604052805190602001209050919050565b60006100bb82356102eb565b9392505050565b6000601f820183136100d357600080fd5b81356100e66100e1826102b6565b61028f565b9150808252602083016020830185838301111561010257600080fd5b61010d838284610312565b50505092915050565b60006060828403121561012857600080fd5b610132606061028f565b9050600061014084846100af565b825250602061015184848301610189565b602083015250604082013567ffffffffffffffff81111561017157600080fd5b61017d848285016100c2565b60408301525092915050565b60006100bb82356102f6565b6000602082840312156101a757600080fd5b813567ffffffffffffffff8111156101be57600080fd5b6101ca84828501610116565b949350505050565b6101db816102eb565b82525050565b6101db816102f6565b60006101f5826102de565b6101ff81856102e2565b935061020f81856020860161031e565b6102188161034e565b9093019392505050565b8051600090606084019061023685826101d2565b50602083015161024960208601826101e1565b506040830151848203604086015261026182826101ea565b95945050505050565b6020810161027882846101e1565b92915050565b602080825281016100bb8184610222565b60405181810167ffffffffffffffff811182821017156102ae57600080fd5b604052919050565b600067ffffffffffffffff8211156102cd57600080fd5b506020601f91909101601f19160190565b5190565b90815260200190565b6000610278826102f9565b90565b73ffffffffffffffffffffffffffffffffffffffff1690565b82818337506000910152565b60005b83811015610339578181015183820152602001610321565b83811115610348576000848401525b50505050565b601f01601f19169056fea265627a7a7230582097938cececd1fd30ef2f8f1f65cb259d3366bd6417cc4a22f1c3e2330efc93f56c6578706572696d656e74616cf50037",
				"opcodes": "PUSH2 0x392 PUSH2 0x30 PUSH1 0xB DUP3 DUP3 DUP3 CODECOPY DUP1 MLOAD PUSH1 0x0 BYTE PUSH1 0x73 EQ PUSH1 0x0 DUP2 EQ PUSH2 0x20 JUMPI PUSH2 0x22 JUMP JUMPDEST INVALID JUMPDEST POP ADDRESS PUSH1 0x0 MSTORE PUSH1 0x73 DUP2 MSTORE8 DUP3 DUP2 RETURN INVALID PUSH20 0x0 ADDRESS EQ PUSH1 0x80 PUSH1 0x40 MSTORE PUSH1 0x4 CALLDATASIZE LT PUSH2 0x51 JUMPI PUSH29 0x100000000000000000000000000000000000000000000000000000000 PUSH1 0x0 CALLDATALOAD DIV PUSH4 0xC99AE53D DUP2 EQ PUSH2 0x56 JUMPI JUMPDEST PUSH1 0x0 DUP1 REVERT JUMPDEST PUSH2 0x69 PUSH2 0x64 CALLDATASIZE PUSH1 0x4 PUSH2 0x195 JUMP JUMPDEST PUSH2 0x7F JUMP JUMPDEST PUSH1 0x40 MLOAD PUSH2 0x76 SWAP2 SWAP1 PUSH2 0x26A JUMP JUMPDEST PUSH1 0x40 MLOAD DUP1 SWAP2 SUB SWAP1 RETURN JUMPDEST PUSH1 0x0 DUP2 PUSH1 0x40 MLOAD PUSH1 0x20 ADD PUSH2 0x92 SWAP2 SWAP1 PUSH2 0x27E JUMP JUMPDEST PUSH1 0x40 MLOAD PUSH1 0x20 DUP2 DUP4 SUB SUB DUP2 MSTORE SWAP1 PUSH1 0x40 MSTORE DUP1 MLOAD SWAP1 PUSH1 0x20 ADD KECCAK256 SWAP1 POP SWAP2 SWAP1 POP JUMP JUMPDEST PUSH1 0x0 PUSH2 0xBB DUP3 CALLDATALOAD PUSH2 0x2EB JUMP JUMPDEST SWAP4 SWAP3 POP POP POP JUMP JUMPDEST PUSH1 0x0 PUSH1 0x1F DUP3 ADD DUP4 SGT PUSH2 0xD3 JUMPI PUSH1 0x0 DUP1 REVERT JUMPDEST DUP2 CALLDATALOAD PUSH2 0xE6 PUSH2 0xE1 DUP3 PUSH2 0x2B6 JUMP JUMPDEST PUSH2 0x28F JUMP JUMPDEST SWAP2 POP DUP1 DUP3 MSTORE PUSH1 0x20 DUP4 ADD PUSH1 0x20 DUP4 ADD DUP6 DUP4 DUP4 ADD GT ISZERO PUSH2 0x102 JUMPI PUSH1 0x0 DUP1 REVERT JUMPDEST PUSH2 0x10D DUP4 DUP3 DUP5 PUSH2 0x312 JUMP JUMPDEST POP POP POP SWAP3 SWAP2 POP POP JUMP JUMPDEST PUSH1 0x0 PUSH1 0x60 DUP3 DUP5 SUB SLT ISZERO PUSH2 0x128 JUMPI PUSH1 0x0 DUP1 REVERT JUMPDEST PUSH2 0x132 PUSH1 0x60 PUSH2 0x28F JUMP JUMPDEST SWAP1 POP PUSH1 0x0 PUSH2 0x140 DUP5 DUP5 PUSH2 0xAF JUMP JUMPDEST DUP3 MSTORE POP PUSH1 0x20 PUSH2 0x151 DUP5 DUP5 DUP4 ADD PUSH2 0x189 JUMP JUMPDEST PUSH1 0x20 DUP4 ADD MSTORE POP PUSH1 0x40 DUP3 ADD CALLDATALOAD PUSH8 0xFFFFFFFFFFFFFFFF DUP2 GT ISZERO PUSH2 0x171 JUMPI PUSH1 0x0 DUP1 REVERT JUMPDEST PUSH2 0x17D DUP5 DUP3 DUP6 ADD PUSH2 0xC2 JUMP JUMPDEST PUSH1 0x40 DUP4 ADD MSTORE POP SWAP3 SWAP2 POP POP JUMP JUMPDEST PUSH1 0x0 PUSH2 0xBB DUP3 CALLDATALOAD PUSH2 0x2F6 JUMP JUMPDEST PUSH1 0x0 PUSH1 0x20 DUP3 DUP5 SUB SLT ISZERO PUSH2 0x1A7 JUMPI PUSH1 0x0 DUP1 REVERT JUMPDEST DUP2 CALLDATALOAD PUSH8 0xFFFFFFFFFFFFFFFF DUP2 GT ISZERO PUSH2 0x1BE JUMPI PUSH1 0x0 DUP1 REVERT JUMPDEST PUSH2 0x1CA DUP5 DUP3 DUP6 ADD PUSH2 0x116 JUMP JUMPDEST SWAP5 SWAP4 POP POP POP POP JUMP JUMPDEST PUSH2 0x1DB DUP2 PUSH2 0x2EB JUMP JUMPDEST DUP3 MSTORE POP POP JUMP JUMPDEST PUSH2 0x1DB DUP2 PUSH2 0x2F6 JUMP JUMPDEST PUSH1 0x0 PUSH2 0x1F5 DUP3 PUSH2 0x2DE JUMP JUMPDEST PUSH2 0x1FF DUP2 DUP6 PUSH2 0x2E2 JUMP JUMPDEST SWAP4 POP PUSH2 0x20F DUP2 DUP6 PUSH1 0x20 DUP7 ADD PUSH2 0x31E JUMP JUMPDEST PUSH2 0x218 DUP2 PUSH2 0x34E JUMP JUMPDEST SWAP1 SWAP4 ADD SWAP4 SWAP3 POP POP POP JUMP JUMPDEST DUP1 MLOAD PUSH1 0x0 SWAP1 PUSH1 0x60 DUP5 ADD SWAP1 PUSH2 0x236 DUP6 DUP3 PUSH2 0x1D2 JUMP JUMPDEST POP PUSH1 0x20 DUP4 ADD MLOAD PUSH2 0x249 PUSH1 0x20 DUP7 ADD DUP3 PUSH2 0x1E1 JUMP JUMPDEST POP PUSH1 0x40 DUP4 ADD MLOAD DUP5 DUP3 SUB PUSH1 0x40 DUP7 ADD MSTORE PUSH2 0x261 DUP3 DUP3 PUSH2 0x1EA JUMP JUMPDEST SWAP6 SWAP5 POP POP POP POP POP JUMP JUMPDEST PUSH1 0x20 DUP2 ADD PUSH2 0x278 DUP3 DUP5 PUSH2 0x1E1 JUMP JUMPDEST SWAP3 SWAP2 POP POP JUMP JUMPDEST PUSH1 0x20 DUP1 DUP3 MSTORE DUP2 ADD PUSH2 0xBB DUP2 DUP5 PUSH2 0x222 JUMP JUMPDEST PUSH1 0x40 MLOAD DUP2 DUP2 ADD PUSH8 0xFFFFFFFFFFFFFFFF DUP2 GT DUP3 DUP3 LT OR ISZERO PUSH2 0x2AE JUMPI PUSH1 0x0 DUP1 REVERT JUMPDEST PUSH1 0x40 MSTORE SWAP2 SWAP1 POP JUMP JUMPDEST PUSH1 0x0 PUSH8 0xFFFFFFFFFFFFFFFF DUP3 GT ISZERO PUSH2 0x2CD JUMPI PUSH1 0x0 DUP1 REVERT JUMPDEST POP PUSH1 0x20 PUSH1 0x1F SWAP2 SWAP1 SWAP2 ADD PUSH1 0x1F NOT AND ADD SWAP1 JUMP JUMPDEST MLOAD SWAP1 JUMP JUMPDEST SWAP1 DUP2 MSTORE PUSH1 0x20 ADD SWAP1 JUMP JUMPDEST PUSH1 0x0 PUSH2 0x278 DUP3 PUSH2 0x2F9 JUMP JUMPDEST SWAP1 JUMP JUMPDEST PUSH20 0xFFFFFFFFFFFFFFFFFFFFFFFFFFFFFFFFFFFFFFFF AND SWAP1 JUMP JUMPDEST DUP3 DUP2 DUP4 CALLDATACOPY POP PUSH1 0x0 SWAP2 ADD MSTORE JUMP JUMPDEST PUSH1 0x0 JUMPDEST DUP4 DUP2 LT ISZERO PUSH2 0x339 JUMPI DUP2 DUP2 ADD MLOAD DUP4 DUP3 ADD MSTORE PUSH1 0x20 ADD PUSH2 0x321 JUMP JUMPDEST DUP4 DUP2 GT ISZERO PUSH2 0x348 JUMPI PUSH1 0x0 DUP5 DUP5 ADD MSTORE JUMPDEST POP POP POP POP JUMP JUMPDEST PUSH1 0x1F ADD PUSH1 0x1F NOT AND SWAP1 JUMP INVALID LOG2 PUSH6 0x627A7A723058 KECCAK256 SWAP8 SWAP4 DUP13 0xec 0xec 0xd1 REVERT ADDRESS 0xef 0x2f DUP16 0x1f PUSH6 0xCB259D3366BD PUSH5 0x17CC4A22F1 0xc3 0xe2 CALLER 0xe 0xfc SWAP4 CREATE2 PUSH13 0x6578706572696D656E74616CF5 STOP CALLDATACOPY "
			}
		}
	},
	"sourceTreeHashHex": "0x830be3745fdb674f5a8681f0f89452b53982ed446ce5ac0ebc394038a2da5f97",
	"compiler": {
		"name": "solc",
		"version": "soljson-v0.5.4+commit.9549d8ff.js",
		"settings": {
			"optimizer": {
				"enabled": true
			},
			"outputSelection": {
				"*": {
					"*": [
						"abi",
						"evm.bytecode.object",
						"evm.bytecode.sourceMap",
						"evm.deployedBytecode.object",
						"evm.deployedBytecode.sourceMap"
					]
				}
			},
			"remappings": [
				"openzeppelin-solidity=/Users/liamz/Documents/open-source/0dex/contracts/node_modules/openzeppelin-solidity"
			]
		}
	}
}